:020000040800F2
:10000000B00B002035020008313A0008ED3300083B
:1000100081380008F11E0008B74300080000000006
:10002000000000000000000000000000F540000893
:100030002B1F0008000000003B3F0008F7400008AD
:100040004F0200084F0200084F0200084F0200084C
:100050004F0200084F0200084F0200084F0200083C
:100060004F0200084F0200084F020008F51E00086A
:100070004F0200084F0200084F0200084F0200081C
:100080004F0200084F0200084F0200084F0200080C
:100090004F0200084F0200084F0200084F020008FC
:1000A0004F0200084F0200084F0200084F020008EC
:1000B0004F0200084F0200084F0200084F020008DC
:1000C0004F0200084F0200084F0200084F020008CC
:1000D0004F0200084F0200084F0200084F020008BC
:1000E0004F0200084F0200084F02000800F002F81B
:1000F00000F090F80AA090E8000C82448344AAF132
:100100000107DA4501D100F085F8AFF2090EBAE82F
:100110000F0013F0010F18BFFB1A43F0010318473B
:10012000A4610000C4610000103A24BF78C878C1FF
:10013000FAD8520724BF30C830C144BF04680C60ED
:10014000704700000023002400250026103A28BF35
:1001500078C1FBD8520728BF30C148BF0B60704739
:100160006E2900F0A381702900F0E582662905F070
:10017000D382652905F0D082672905F0CD826129F7
:1001800005F0CC8203681B0A28BF41F08001692971
:1001900000F05081642900F04D81752900F04A81FA
:1001A0006F2900F07282782900F0B182E92900F00D
:1001B0000D82E42900F00A82F52900F00782EF2978
:1001C00000F06F82F82900F0B0820368DB0928BFD5
:1001D00041F08001632900F0B387732900F0B887EC
:1001E000E32900F0C387F32900F0C8870020704797
:1001F0001FB501F019F804000020002104F09EFB57
:10020000401C60600020002104F082FBE0601FBD04
:1002100010B510BD00F0DAFF1146FFF7E9FF04F05A
:1002200051FA01F0B7F803B4FFF7F2FF03BC01F095
:10023000BBF800000948804709480047FEE7FEE791
:10024000FEE7FEE7FEE7FEE7FEE7FEE7FEE7FEE786
:1002500004480549054A064B7047000073410008F1
:10026000ED000008B0050020B00B0020B007002012
:10027000B00700201CB50C46064B7B446946009035
:10028000204600F02CF904460020694600F03AF9B7
:1002900020461CBD870200004FF0000200B5134647
:1002A00094469646203922BFA0E80C50A0E80C5096
:1002B000B1F12001BFF4F7AF090728BFA0E80C5047
:1002C00048BF0CC05DF804EB890028BF40F8042B40
:1002D00008BF704748BF20F8022B11F0804F18BFAD
:1002E00000F8012B704700004FF0013C50F8042B40
:1002F00051F8043B9A4221D1A2EB0C03934313EA39
:10030000CC1317D150F8042B51F8043B9A4215D165
:10031000A2EB0C03934313EACC130BD150F8042B3C
:1003200051F8043B9A4209D1A2EB0C03934313EA20
:10033000CC13DBD04FF00000704700BFD01A01BAD9
:10034000B1FA81F101F0180122FA01F0CB40C1F1BC
:100350002001DBB2C0B2C01A2CFA01F3D11A9143CA
:1003600011EAC311E6D1704770477047704770B506
:10037000044685690068C10601D5302600E02026C4
:10038000C00707D070BDD4E9012130469047206AEC
:10039000401C20626D1EF6D570BD70B5044685699F
:1003A0000078C00707D170BDD4E901212020904713
:1003B000206A401C20626D1EF6D570BD09684A0592
:1003C00001D540B27047C905FCD500B27047096835
:1003D0004A0501D5C0B27047C905FCD580B2704747
:1003E00070B50C460546012A05D02878800600D550
:1003F000EA69002302E0012305E05B1C934202D27C
:10040000E05C0028F9D1A869E618C01AA861286A3A
:10041000184428622846FFF7AAFF04E0D5E9012125
:1004200014F8010B9047B442F8D32846FFF7B5FF04
:1004300070BD00002DE9F0410646002410687529C2
:10044000314616A510D0FFF7B9FF002802DA404266
:1004500013A507E031688A0701D512A502E0490714
:1004600004D511A5012401E0FFF7B1FF00210A2204
:1004700006F1240709E0B0FBF2FCB0FBF2F302FB4B
:100480001C00303078541846491C0028F3D123460C
:100490002A463046BDE8F04100F061BA0000000095
:1004A0002D0000002B0000002000000011680268F1
:1004B000006A530501D508700AE0D30501D508800C
:1004C00006E0130603D5C217C1E9000200E0086088
:1004D0000120704701694A1C02610878704700B525
:1004E0008FB0CDE901310021059105497944CDE96D
:1004F00003101146684600F029F90FB000BD000056
:10050000E5FFFFFF0A6802F8010B0A607047000070
:100510002DE9FF5F15468A460446DFF8AC80F844B3
:100520000027D8E900103E46CDE9001010E03AF867
:1005300016106A4602A800F025FE411C07D021785B
:10054000890603D5E269391891420DD80744761C13
:100550002078800602D5E069B84205DDAE42E6DBD0
:100560003AF816000028E2D1A069C01BA06120461D
:10057000FFF7FDFED8E90010CDE90010002017E0DC
:100580003AF818106A4602A800F0FCFDB0F1FF3FEF
:1005900081460BD000250DF1080B05E0D4E90121BF
:1005A0001BF8050090476D1C4D45F7D308F101007D
:1005B000B0428046E4DB206A384420622046FFF7E0
:1005C000ECFEBDE8FF9F0000A65C00002DE9F041B5
:1005D0008046D21D22F007020025D2E90002F5294B
:1005E00015A614D0011E72F1000106DA0023D0EB2B
:1005F000030063EB020211A608E0D8F800108B0795
:1006000001D50FA602E0490701D50EA60125114626
:10061000002408F1240704E000F05CF930323A5578
:10062000641C50EA0102F7D12B463246214640466F
:10063000BDE8F04100F093B9000000002D0000007B
:100640002B0000002000000030B4002100F1240441
:1006500008E002F00705D208303542EA4372DB08B1
:100660006554491C52EA0305F3D10468002310A223
:10067000250707D5A40600D421B1C46901230DA222
:10068000641EC46130BC00F06AB910B5044621464E
:100690001068FFF79CFE02462046BDE8104000238C
:1006A000D2E7D21D22F00701D1E90023CCE70000F8
:1006B0000000000030000000F0B40D46018809057C
:1006C00002D5214C7C4402E01F4C7C440E340021B6
:1006D00000F1240608E002F00F071209E75D42EA84
:1006E00003721B097754491C52EA0307F3D10278BD
:1006F0000023120704D5702D06D009B1022311344E
:100700002246F0BC00F02BB901231034F8E770B595
:1007100004460D4621461068FFF759FE0246294659
:100720002046BDE870400023C6E7D21D22F0070333
:10073000D3E90023C0E70368126843F02003036095
:100740000823C3610023B7E7085B00002DE9F05FD1
:10075000894604464FF0000ADFF874B1FB44C0F844
:1007600020A02046E1688847002874D0252806D0BC
:10077000D4E901219047206A401C2062F1E700265D
:100780005F462046E16888472028054607DB312D73
:1007900005D2781910F8200C08B10643F1E7B0072C
:1007A00001D526F00406C4F81CA00027C4F818A040
:1007B0002A2D09D0284603F023FE38B304EB87081E
:1007C000303DC8F8185019E059F8041B204604EBD6
:1007D00087029161E1688847012F054618D1E069D9
:1007E000002820DA26F020061DE0D8F8180000EBDB
:1007F000800005EB40003038C8F818002046E1685A
:100800008847054603F0FCFD0028EED1012F0AD0F1
:100810002E2D08D12046E16888477F1C0546022F0F
:1008200046F02006C4DBA069002803DA404246F007
:100830000106A061F00701D026F010066C2D0BD048
:10084000682D09D04C2D39D06A2D35D0742D35D076
:100850007A2D33D016E038E0E1682F4620468847ED
:10086000B842054609D16C2F26D04FF48060E1686C
:10087000064320468847054604E06C2F1AD04FF403
:10088000807006430DB3A5F14100192802D8203528
:1008900046F400664A462946204626604E46FFF743
:1008A0005FFC80B101280BD0F61D26F0070000F197
:1008B000080956E74020E4E78020D8E70020D6E783
:1008C00006F104094DE7284652E7206ABDE8F09F8B
:1008D000985A000030B5B0F10A024FEA900E71F15B
:1008E00000034EEA817EB0EB0E0061EB91014FEA0E
:1008F000101E4EEA017E10EB0E0041EB11114FEA83
:10090000102E4EEA016E10EB0E0041EB11214FEA62
:10091000104E4EEA014E10EB0E0041EB1141401813
:1009200041F100014FEAD00040EA41704FEAD101A5
:1009300010EB80054FEA810444EA907444EB010413
:100940006D1944EB0404521BA3414FF0000348BF50
:100950000A3200D530BD401C41F1000130BD2DE907
:10096000F0470D4699469246044600F12408016876
:10097000880604D5E06921F01001216000E0012023
:10098000A84201DD471B00E00027A1697A1902EBAC
:100990000900081AA0612078C00602D42046FFF79B
:1009A000E6FC002608E0D4E901211AF80600904789
:1009B000206A401C761C20624E45F4DB2078C0067D
:1009C0000AD52046FFF7D3FC06E0D4E90121302008
:1009D0009047206A401C2062381EA7F10107F4DC12
:1009E00007E0D4E9012118F805009047206A401C6F
:1009F0002062281EA5F10105F3DC2046FFF7CDFC9F
:100A00002078000602D50220BDE8F0870120FBE730
:100A100070472DE9FF4F0C461E464FF0FF378BB055
:100A2000D2E90001DDF860800A908A46C1F30A55D8
:100A300005B93D46002108464FF00000BAF1000F0D
:100A400000F4400005DA00EB80004FF4400101EAB9
:100A500050004FEA9059B9F1010F00DDB9460A98EC
:100A600050EA4A000ED044F61050A5F2FF35454337
:100A70002F14B8F1000F1ED07542291E1EDDC9F1DA
:100A800000021CE0B8F1010F4FF0000001D030214E
:100A900003E0F24305E02154401CB042FBDB30464A
:100AA0000022002121540B99C1F80880C1E90020DF
:100AB0000FB0BDE8F08FBD1B6D1CDEE74A4600DAC3
:100AC000694206A800F0F4FB06AB93E8070003AB0D
:100AD00083E8070050460A9900F06DFC8DE8070096
:100AE000A0F500501F3800900398002D0ADD42F257
:100AF0001F014A460844002303A90390684600F0FA
:100B0000D6FE09E0A0F500504A461F38002303A98D
:100B10000390684600F0E0FE8DE807000004000C3A
:100B200003D04FF0FF30410800E01046B8F1000F4D
:100B300003D00022009215461EE0751E05D4FFF773
:100B4000C9FE303262556D1EF9D5B3460122084305
:100B500002D000227F1C04E02078302801D100223E
:100B60007F1E002A099784D01DE0112D07DAFFF7B8
:100B7000B1FE303262556D1C50EA0102F5D10843D6
:100B800002D00098C8B10EE00021681E05E0235C89
:100B9000625C63542254401E491C8142F7DBAB4621
:100BA000A81B401E0990002004F80B000B98099A1E
:100BB000C0F80880C0E9002B7AE711264FF0000842
:100BC00057E72DE9F04F88460446D21D22F0070171
:100BD00091B0D1E90001CDE90A0103F0EDFB024635
:100BE0000B98C00F01D02D2007E02068810701D5A8
:100BF0002B2002E0202101EAC000032A099001D045
:100C0000072A05DB03464146204600F011FB0BE1B5
:100C10002078800601D5E06900E00620B8F1650F74
:100C2000814606D0B8F1660F18D0B8F1670F70D1C1
:100C300031E00020B9F1110F009001DB112301E038
:100C400009F101030AAA01A90CA8FFF7E2FEDDE9F8
:100C50000C70002609F10105834647E001204B4650
:100C600000904FF000470AAA01A90CA8FFF7D1FE97
:100C7000DDE90DB00C995D46002610B909F10100BF
:100C80000D18B9EB050003D4C0F1FF3609F10105D9
:100C9000A5EB09002BE0B9F1010F01DA4FF00109D2
:100CA0000020B9F1110F0090484601DD112300E04A
:100CB00003460AAA01A90CA8FFF7ABFEDDE90C70F8
:100CC0004D4600268346207800070AD4AB4500DA5B
:100CD0005D4601A8012D04DD411911F8011C3029E0
:100CE00007D04F4502DA17F1040F04DA01208246DB
:100CF0000FE06D1EEEE7002F02DCED1B3E4403E02B
:100D0000781CA84200DD7D1CB81B00F1010A4FF0E1
:100D100000472078000703D4AA4501DB4FF0FF3AD3
:100D20000021B7F1004F0DF143088DF8431024D096
:100D300002202B23002F01DA7F422D230A21021EDD
:100D4000A0F1010000DC5FB197FBF1FC97FBF1F231
:100D500001FB1C7C17460CF1300C08F801CDEEE7C6
:100D6000A8F1010003702188090501D5452100E0A3
:100D70006521A0F1010800F8011C09980FA9A1EB59
:100D80000807FF1D00B10120411901EBEA70A169BC
:100D90003844081A401EA0612078C00602D42046BC
:100DA000FFF7E5FA099828B1D4E901219047206AB4
:100DB000401C20622078C00622D52046FFF7D7FAD3
:100DC0001EE0002E04DBB34502DD01A8805D00E0DB
:100DD0003020D4E901219047206A401C2062761C13
:100DE000AAF101005FEA000A0AD100F01DFAC0680A
:100DF0000168405CD4E901219047206A401C2062D0
:100E0000281EA5F10105DCDC07E0D4E9012118F872
:100E1000010B9047206A401C2062381EA7F1010791
:100E2000F3DC2046FFF7B9FA032011B041E60000D9
:100E30002DE9F04F04460D46D21D22F0070089B07F
:100E4000D0E900974846394603F0B6FA0246F80F53
:100E500001D02D2307E02068810701D52B2302E074
:100E6000202101EAC0038DF820300BB1012000E001
:100E70000020032A824601D0072A04DB29462046A7
:100E800000F0D6F93FE12078800601D40D2500E07E
:100E9000E569C7F30A560D2D49DA00214FEA175BC1
:100EA00008464FF00000002F00F4400007DA00EB86
:100EB00080004FF4400100EBD07001EA6000811522
:100EC000012901DD4FF0FF3100224FEA850CBCF112
:100ED000180F06D31346ACF118004FF08052C240F1
:100EE00003E04FF4801323FA0CF30CF10C0CBCF16B
:100EF000200F04D3ACF1200C09FA0CF001E007FA42
:100F00000CF000294FF0004801DD18B90FE00ED1B8
:100F100040450CD319EB02095F4121B9404502D18C
:100F20009F4329EA0209BBEB175F00D0761C20889B
:100F3000000502D57B48784402E07A4878441938A5
:100F400008AA302302F80A30037C0AF10101002EBE
:100F50000AF1020A53546A4602DC4FF0300101E004
:100F60004FF031014FF001088DF8001002D0A6F2C9
:100F7000FF3603E059EA470100D06B4E002D02DC3A
:100F80002178090704D54FF002082E218DF80110B1
:100F9000C44600210BE0C7F303433F01C35C491C77
:100FA0006D1E02F80830052908F1010801DA002D4C
:100FB000F1DC00210CE000EB1973491C1B786D1E5D
:100FC000082902F808304FEA091908F1010801DA86
:100FD000002DF0DC21688B0602D516E0A8F101088F
:100FE000E04505DD02EB080313F8013C302BF5D09A
:100FF000B8F1000F09DD02EB080313F8013C2E2BBA
:1010000003D1090701D4A8F10108002D05DD3E2117
:1010100002F808106D1E08F10108407C002E02F84D
:10102000080008F1010804DA2D20764202F80800D1
:1010300002E02B2002F808000A214FF47A70864261
:1010400008F101080BDB96FBF0F3303302F80830AF
:1010500096FBF0F308F1010800FB136601E0642E33
:101060000CDB642096FBF0F3303302F8083096FB7B
:10107000F0F308F1010800FB136601E00A2E06DB1D
:1010800096FBF1F0303002F8080008F1010896FBF9
:10109000F1F001FB1060303002F80800A16908F19E
:1010A000010808EB050202EB0A00081AA06120788B
:1010B000C00602D42046FFF75AF9216A08AE01EBB8
:1010C0000A00206204E0D4E9012116F8010B9047E0
:1010D000BAF1010AF7D22078C00602D52046FFF700
:1010E00046F96E4609E016F8010B3E280FD0D4E908
:1010F00001219047206A401C2062B8F10108F2D219
:101100002046FFF74AF909B00320BDE8F08F206AB6
:101110002844206203E0D4E90121302090476D1E6D
:10112000EBD3F8E7E252000002FCFFFF10B5436981
:1011300013B1AFF3008001E0FFF752F9012010BDB9
:10114000127800F124010A7000224A700122EDE7B2
:1011500011684FF0FF32E9E710B5436913B1AFF3FF
:10116000008001E0FFF7D4F9012010BD128800F1E2
:10117000240182840022C2840122EDE711684FF02D
:10118000FF32E9E770B516460C46054600F044F814
:10119000036893F80101012806D0FF2C0FD8185DD1
:1011A00068B101202C7070BDD3F80701324621468A
:1011B00003F2071303442846BDE8704018474FF078
:1011C000FF3070BD004870474C0500207546FFF7A2
:1011D000F9FFAE4605006946534620F007008546F4
:1011E00018B020B5FFF734F8BDE820404FF00006F6
:1011F0004FF000074FF000084FF0000B21F00701FF
:10120000AC46ACE8C009ACE8C009ACE8C009ACE841
:10121000C0098D467047000010B500F005F8001DAC
:1012200010BD00BF19370000004870476C05002052
:101230002DE9F0411F46044603260168072A01F400
:10124000006004DB08B116A505E016A503E008B1AF
:1012500015A500E015A521F010002060A069C01EB2
:10126000A0610FB1401EA0612046FFF780F84FB18A
:10127000D4E9012138469047206A401C2062C01CF6
:10128000206206E0206AFAE7D4E9012115F8010B93
:101290009047761EF8D22046FFF77FF8BDE8F08130
:1012A0004E414E006E616E00494E4600696E66000A
:1012B0002DE9F047814616468AB0354878440DC876
:1012C0008DE80D0032487844801C03AC0DC884E8DA
:1012D0000D0041F69B300844372190FBF1F290FB62
:1012E000F1F5A5F1800501FB12041B3C02D5644217
:1012F000012000E00020DFF898A080460027FA4493
:10130000AAF1BE0A0EE0E0070AD03246684607EBB3
:10131000470101230AEB810100F0DEFA8DE80700A6
:1013200064107F1C002CEED1194F7F44AE3F19E0B2
:10133000E80715D007EB04100DF1180A90E80E002D
:101340008AE80E00C068F04201D198190890324630
:10135000012306A903A800F0BFFA03AB83E8070046
:101360006D10641C002DE3D14FF001033246694635
:10137000B8F1000F03A802D000F099FA01E000F0E4
:10138000ABFAC9E90001C9F808200AB0BDE8F08746
:10139000EC4F000010B50446AFF300802046BDE8D6
:1013A0001040FEF740BF000001491820ABBEFEE729
:1013B0002600020070475FEA400C08BF91F0000F62
:1013C0004FEA8C234FEAC12243EA51514FEA1C50A5
:1013D00018BF00F5F0404FEA300018BF41F000415F
:1013E0005FEA6C5C00F02980BCF1FF3F08BF40F071
:1013F00080407047130C06BF12044FF0100C4FF0E2
:10140000000C130E04BF12020CF1080C130F04BFE2
:1014100012010CF1040C930F04BF92000CF1020CAA
:10142000D30F04BF52000CF1010C11464FF0000223
:10143000A0F11F00A0EB0C00704711F0004F08BF97
:10144000704731F000413FF4D5AF0B0C06BF0904E3
:101450004FF0100C4FF0000C0B0E04BF09020CF102
:10146000080C0B0F04BF09010CF1040C8B0F04BF17
:1014700089000CF1020CCB0F04BF49000CF1010CE8
:10148000CCF12003A0EB0C0022FA03F302FA0CF2D9
:1014900041EA030100F10100704720F07F4C80EA2F
:1014A000030023F07F47ACEB070303F57C5300F008
:1014B000004003F1FF032DE980494FEA154B09B4C1
:1014C0004FEA144325EA0B4E24EA03480FF20426A0
:1014D00006EB132749083E785FEA320203FB0667F2
:1014E000C7F5000707FB06F64FEA54374FEAD64622
:1014F00006F1020607FB066CCCF1005C4FEA1C47C4
:101500002CEA074C07FB06F40CFB06F504EB15462A
:101510004FEA961634BF00204FF000404FEAD13713
:1015200006FB07FC4FEA1C4C0CFB0BF7D21B03FB22
:101530000CF761EB07010CFB0EF7B0EB074072EB09
:1015400017420CFB08F734BFA2EB0742B2EB07428D
:1015500061EB17414FEA0C444FEA910706FB07FC89
:101560004FEA1C4C0CFB0BF7B0EBC74072EB573249
:1015700003FB0CF734BFA2EBC742B2EBC74261EBEF
:1015800057310CFB0EF7B0EBC70072EB57720CFB38
:1015900008F734BFA2EBC702B2EBC70261EB577189
:1015A000039F4FEA816141EA921104EBCC044FEAB8
:1015B000D1374FEA826206FB07FC42EA90124FEAFB
:1015C00080604FEA1C4C0CFB0BF7D21B03FB0CF7A3
:1015D00061EB07010CFB0EF7B0EB074072EB174213
:1015E0000CFB08F734BFA2EB0742B2EB074261EBFA
:1015F00017414FEA8C554FEA910704EB9C2406FBF8
:1016000007FC4FEA1C4C0CFB0BF7B0EBC74072EB2E
:10161000573203FB0CF734BFA2EBC742B2EBC74211
:1016200061EB57310CFB0EF7B0EBC70072EB577252
:101630000CFB08F734BFA2EBC702B2EBC70261EBA9
:10164000577115EB4C254FEA816141EA92114FEA3F
:1016500082624FEAD13742EA901206FB07FC44F15E
:1016600000044FEA80604FEA1C4C0CFB0BF7D21BC6
:1016700003FB0CF761EB07010CFB0EF7B0EB074027
:1016800072EB17420CFB08F734BFA2EB0742B2EB38
:10169000074261EB174115EB1C154FEA813141EA16
:1016A00092414FEA823242EA90424FEA80304FEA5A
:1016B0000C7644F1000448EA03434EEA0B484FF02D
:1016C000000EB2EB080C71EB030724BF62463946EB
:1016D0004EEB0E0E4FF0000B0018524149414BEB00
:1016E0000B0BB2EB080C71EB03077BF1000B24BF73
:1016F000624639464EEB0E0E4FF0000B0018524179
:1017000049414BEB0B0BB2EB080C71EB03077BF180
:10171000000B24BF624639464EEB0E0E51EA02071B
:1017200018BF46F0010616EB0E7655F1000254F193
:10173000000103D5BDE88901BDE80088BDE8890145
:10174000BDE80048B619524141EB0101A3F1010384
:10175000704780807F7E7D7C7B7A7978777676751E
:101760007473727171706F6E6E6D6C6C6B6A6A6996
:101770006868676666656464636362616160605F30
:101780005F5E5E5D5D5C5C5B5B5A5A5959585857A9
:101790005756565555555454535352525251515011
:1017A00050504F4F4F4E4E4D4D4D4C4C4C4B4B4B64
:1017B0004A4A4A49494948484847474747464646AA
:1017C00045454544444444434343434242424241E5
:1017D0004141002B9C4630D477002BD01CB54FEAFA
:1017E000370703B44FF010004FF01001BAF1000FAB
:1017F00006D0BCF1000FDCBF40F0080040F008014B
:101800004FF000000FBCBDE810400BF1010BBBF125
:10181000010F08BF5FEA170722BF12F1010211F1A1
:1018200001014FF0004143F1000300F0004043EAA2
:1018300000007047F9D35708D0E746EA064613F18F
:10184000400F4FEA16461FDD13F1200FDFBF16438E
:101850000A46002120335B42BED0C3F1200746EA8E
:10186000064602FA07F74FEA164646EA0706C3F1AC
:10187000200722FA03F201FA07F721FA03F14FF0E9
:10188000000342EA0702A7E746EA020646EA0646DE
:101890004FEA164646EA0106BCBF46EA0646360C43
:1018A0004FF000034FF000024FF0000194E72DE9E4
:1018B000804C9A46934670B491E8380007C831EAE4
:1018C000400C48BF34EA430C03D5FFF7E6FDFFF7B1
:1018D00080FFF0BCBDE8008C2DE9804C9A46934611
:1018E00070B491E8380007C810F0804F08BF13F0BB
:1018F000804F03D100F005F8FFF76BFFF0BCBDE8A7
:10190000008C20F07F4780EA030023F07F4C07EB38
:101910000C03A3F57C5300F00040A3F1FE0392F00A
:10192000000F00F0B38095F0000F00F077802DE9F4
:1019300001494FEA11404FEA144621EA004800FBF2
:1019400006FC24EA064708FB06F607FB08F800FB3E
:1019500007F718EB06484CEB164C4FEA124B18EB06
:1019600007484FEA15464CEB174022EA0B4E0BFB9B
:1019700006FC25EA06470EFB06F607FB0EFE0BFBF0
:1019800007F71EEB064E4CEB164C4FF000061EEB15
:10199000074E4CEB174B18EB0B0840F1000018EB0F
:1019A0000E0B58EB000840F100008F1A4FF00001B9
:1019B0003CBFC943661B14BFB5EB040C00213CBF00
:1019C000C943F61B4FEA17444EEA8E0E27EA044538
:1019D0004FEA1C4704FB07622CEA074C05FB07F79C
:1019E0000CFB05F604FB0CFC16EB074642EB17421A
:1019F00016EB0C4642EB1C421BEB060658EB0202B0
:101A0000414146EA9E0601D5BDE80189B619524119
:101A100041EB0101A3F10103BDE801894FEA14453F
:101A20004FEA114724EA054621EA074C05FB07F473
:101A300006FB07F70CFB06F105FB0CFC11EB07415D
:101A400044EB17444FEA124711EB0C4144EB1C44A2
:101A500022EA074C05FB07F206FB07F70CFB06F62C
:101A600005FB0CFC16EB074642EB174216EB0C4647
:101A700042EB1C456A1854F1000148BF7047B61983
:101A8000524141EB0101A3F10103704795F0000FB2
:101A900037D04FEA11424FEA144721EA024624EABE
:101AA000074C02FB07F106FB07F70CFB06F402FBF1
:101AB0000CFC14EB074441EB17414FEA154714EBBC
:101AC0000C4441EB1C4125EA074C02FB07F506FBE1
:101AD00007F70CFB06F602FB0CFC16EB074645EB82
:101AE000174516EB0C4645EB1C42121951F100014B
:101AF00048BF7047B619524141EB0101A3F1010300
:101B000070474FEA14454FEA114724EA054621EA97
:101B1000074C05FB07F106FB07F70CFB06F24FF03D
:101B2000000605FB0CFC12EB074241EB174112EBE0
:101B30000C4251EB1C4148BF7047921841EB010128
:101B4000A3F101037047000070B504460068816886
:101B5000C943C90717D1816821F00101816000F0F4
:101B600057FE05460AE000BF00F052FE401B022867
:101B700004D920688068C043C00706D02068806808
:101B8000C043C007F0D0002070BDA06A40F0100034
:101B9000A062E06A40F00100E062012070BD10B573
:101BA0000146406A826A12F0500F05D0006A026B4B
:101BB000BDE8104008461047816A41F40071816217
:101BC00001688968C1F3424107290CD1017B51B9F1
:101BD000816A21F480718162816AC90403D4816AB7
:101BE00041F00101816200F0A9FA10BD10B5406A10
:101BF000816A41F040018162C16A41F00401C16221
:101C000000F09EFA10BD10B5406A00F098FA10BDC1
:101C1000F8B500260446009600688168C943C907E4
:101C20002DD0816841F00101816016481649006895
:101C3000B0FBF1F000E0401E00900028FBD100F066
:101C4000E7FD054616E000BF00F0E2FD401B02285C
:101C500010D920688068C043C0070BD0A06A40F04C
:101C60001000A062E06A40F00100E06284F82460A5
:101C70000120F8BD20688068C043C007E4D100207F
:101C8000F8BD00000C00002040420F00D02000F002
:101C9000D1B870B5F92000F0CDF80446F82000F076
:101CA000C9F80546F72000F0C5F8000340EA051022
:101CB00040EA1410BDE8704002F0AABB70B5FC20E9
:101CC00000F0B8F80446FB2000F0B4F80546FA200E
:101CD00000F0B0F8000340EA051040EA1410BDE837
:101CE000704002F089BC00007CB501F011FE882034
:101CF00000F0A0F80446892000F09CF804EB0020D6
:101D00004B4C216808808A2000F094F805468B200F
:101D100000F090F8216805EB002048808C2000F04E
:101D200089F805468D2000F085F8216805EB002034
:101D300088808E2000F07EF805468F2000F07AF82B
:101D4000216805EB0020C880902000F073F805465C
:101D5000912000F06FF8216805EB002008819220A7
:101D600000F068F80546932000F064F8216805EB60
:101D700000204881942000F05DF80546952000F091
:101D800059F8216805EB00208881962000F052F870
:101D90000546972000F04EF8216805EB0020C88129
:101DA000982000F047F80546992000F043F8216894
:101DB00005EB002008829A2000F03CF805469B20A5
:101DC00000F038F8216805EB002048829C2000F0E4
:101DD00031F805469D2000F02DF8216805EB002024
:101DE00088829E2000F026F805469F2000F022F809
:101DF000216805EB0020C882B621E02000F058F8E9
:101E000003208DF8000001218DF801108DF80200EB
:101E1000684600F042F800208DF8040004218DF897
:101E200005108DF8060001A800F02CF87CBD00001C
:101E30003400002010B5044601F0CFFDEC2001F085
:101E4000B6FD00BF01F07CFD0028FBD0204601F06C
:101E5000AEFD00BF01F074FD0028FBD001F0BDFD18
:101E6000ED2001F0A4FD00BF01F06AFD0028FBD0C9
:101E700001F078FD0446012001F08EFD01F03CFDEB
:101E8000204610BD017842784901807841EA8201FC
:101E90000143C9B2F52000F00BB84178027849013E
:101EA000807841EA82010143C9B2F420AFF3008097
:101EB00070B50C46054601F090FDEC2001F077FD71
:101EC00001F03EFD0028FBD0284601F070FD00BF68
:101ED00001F036FD0028FBD0204601F068FD00BF70
:101EE00001F02EFD0028FBD0BDE8704001F004BDDC
:101EF000FEE70000014800F081BA000080000020E9
:101F000030B590F840500124AC40C56B6C6004685B
:101F100063604368102B036803D099600068C26057
:101F200030BD9A600068C16030BD704700B50246A0
:101F30004FF47A7302E0184600F003F8521EFAD20A
:101F400000BD00EBC000C1004FF0E0204161002166
:101F50008161052101610169C903FCD50421016189
:101F6000704772B6FEE70000F8B5002504460095FC
:101F700090F8240001280BD0012084F8240020468A
:101F8000FFF7E2FD2046FFF743FE060002D050E0D7
:101F90000220F8BDA06A20F4885040F00200A06240
:101FA000022000F0D3FC25490968B1FBF0F04000A5
:101FB00000E0401E00900028FBD12068816841F0BD
:101FC0000801816000F024FC074608E000F020FCD6
:101FD000C01B0A2803D920688068000715D4206830
:101FE00080680007F2D42068816841F004018160B4
:101FF00000F00EFC074612E000F00AFCC01B0A28A5
:102000000DD920688068400709D5A06A20F0020039
:1020100040F01000A06284F824500120F8BD206830
:1020200080684007E8D4A06A20F0020040F0010078
:10203000A06284F824503046F8BD00000C00002057
:10204000F8B50024009490F824202546012A12D0E7
:10205000012280F824204A681F23072A0DD206682F
:10206000776B521E02EB820293409F430B689340B2
:102070001F43776319E00220F8BD06680D2A0AD2D3
:10208000376BD21F02EB820293409F430B68934051
:102090001F43376309E0F76A0D3A02EB820293406F
:1020A0009F430B6893401F43F7620A680723066843
:1020B0000A2A0AD3F7680A3A02EB420293409F4386
:1020C0008B6893401F43F76008E0376902EB4202D8
:1020D00093409F438B6893401F4337610A68102ADF
:1020E00001D0112A20D1124B02689A4217D193686D
:1020F0001B0219D4936843F4000393600968102904
:1021000012D10C490C4A0968B1FBF2F101EB8101D3
:10211000490000E0491E00910029FBD104E0816ADA
:1021200041F020018162012480F824502046F8BD4E
:10213000002401400C00002040420F00704770470F
:10214000704700002DE9F0414FF0000704003D46C4
:102150007ED0A06A002628B9E66284F82460204672
:1021600000F07EF82046FFF7EFFCA16AC90600D414
:1021700020B1A06A40F01000A06269E0A16A21F4D9
:10218000885141F00201A1626268E169237B0A4340
:1021900047EA43010A43A1684FF48077B94209D066
:1021A000012907D05FF0000194F814C0BCF1010FC1
:1021B00002D00AE03946F7E7F3B1A36A43F02003FF
:1021C000A362E36A43F00103E3622368D3F804C027
:1021D0002CF4694C4CEA010CC3F804C021688B68EC
:1021E000DFF870C003EA0C0313438B60A168B942A7
:1021F0000BD0012909D00CE0DFF85CC0A3690CEB1F
:1022000043330B4343F40061DFE7218A0D05A5F555
:1022100080152168CB6A23F470032B43CB622168BD
:1022200089680E4B1940914208D1E662A16A21F0FB
:10223000020141F00101A162BDE8F081A06A20F035
:10224000020040F01000A062E06A40F00100E0628D
:102250000120F1E7FDF7E1FF00E0FFFFFE0E1FFFA9
:1022600070B586B000250646009501950295039548
:1022700000681A4988422ED11949886940F40070D3
:102280008861886900F400700490886940F0040057
:1022900088618869694600F004000490122000906B
:1022A000032001900F4800F0B9F9104C0E48C4E922
:1022B00000058020C4E90250400020618000606178
:1022C0002020C4E90605204600F042F908B1FFF7D6
:1022D00048FE3462666206B070BD00000024014012
:1022E0000010024000080140080002408000002069
:1022F0002DE9F047894604463B4900683B4F0E1DD7
:102300009046884201D0B84207D1306810F4702F4F
:1023100003D001252846BDE8F08794F82400012861
:102320000CD0012084F824002046FFF771FC050042
:102330004FF0000004D084F82400EBE70220EAE725
:10234000A16A40F60162914341F48071A162216863
:10235000B94218D1326812F4702F14D0A16A41F436
:102360008011A1623168490505D5A16A21F40051A7
:1023700041F48051A162A16AC9040AD5E16A21F041
:102380000601E16206E0A26A22F48012A2624968B4
:10239000E9E7E06284F82400216A15488862216A2E
:1023A0001448C862216A1448086321686FF002006B
:1023B00008602068816841F480718160216843462B
:1023C0004A464C31206A00F0F1F820688168C1F378
:1023D00042410729816803D041F48011816099E767
:1023E00041F4A001FAE70000002401400028014068
:1023F0009F1B0008071C0008ED1B00082DE9F05F7B
:10240000C16B0C6801680B68D0F840C0042202FA66
:102410000CF2494DDFF824A1494E4A4FDFF828B1AC
:10242000DFF828E122422CD05A072AD50A68920602
:1024300003D40A6822F004020A600168A94201D1AB
:10244000042219E0514501D1402215E0B14202D1E8
:102450004FF4806210E0B94202D14FF480420BE0A9
:10246000594502D14FF4802206E0714502D14FF464
:10247000800201E04FF080622F4908394A60C16A4A
:102480003BE04FF0020808FA0CF818EA040F4FF08E
:1024900000094FF0010235D05FEA837832D50B682E
:1024A0009B0605D40B6823F00A030B6080F82120FB
:1024B0000168A94201D1022219E0514501D120222F
:1024C00015E0B14202D14FF4007210E0B94202D1DE
:1024D0004FF400520BE0594502D14FF4003206E0B0
:1024E000714502D14FF4001201E04FF00072124921
:1024F00008394A6080F82090816A00291AD0BDE826
:10250000F05F0847082505FA0CF5254212D01B0795
:1025100010D50B6823F00E030B6090F84010C36BCE
:1025200002FA01F15960826380F8212080F820903E
:10253000016BE2E7BDE8F09F080002401C0002408A
:102540003000024044000240580002406C0002404B
:1025500030B528B308C8134914221944B1FBF2F16D
:102560008900C16310498163022141771A6843F6EB
:10257000F0718A43D0E900142143D0E902452C438D
:102580002143046921434469214384692143114360
:10259000196000214163012242770177084630BD6E
:1025A000012030BDF8FFFDBF0000024070B50446B9
:1025B00090F82000002501280CD0012084F820008C
:1025C00094F821600020012E06D084F82000022516
:1025D000284670BD022070BD022684F82160A063E9
:1025E0002068066826F0010606602046FFF788FC92
:1025F000E06A00282068016802D041F00E0106E080
:1026000021F0040101602068016841F00A010160C5
:102610002068016841F001010160D9E72DE9F84F18
:10262000DFF8B8910024A9F1040B23460F2709F124
:10263000040AABF1040EC9E00125A5402A40AA42D4
:102640007DD1674ED1F804C0ACEB0608B44532D05A
:1026500014DCBCF1030F3AD009DCBCF1000F2AD026
:10266000BCF1010F1CD0BCF1020F31D11DE0BCF157
:10267000110F17D0BCF1120F2AD119E0B8F5881F3D
:1026800019D006DCB8F5803F15D0B8F5801F1FD1F2
:1026900011E0B8F5001F0ED0B8F5041F18D10AE0FC
:1026A000CB6815E0CB681B1D12E0CB6808330FE048
:1026B000CB680C330CE08B682BB1012B4FF0080377
:1026C00003D0456104E0042302E0056100E000233B
:1026D000FF2A01D8064601E000F104064FEA84050E
:1026E00001D9A5F12005D6F8008007FA05FC28EAF3
:1026F0000C0803FA05F548EA0508C6F800804D689D
:10270000ED0062D5374DAE6946F00106AE61AD69A8
:1027100024F0030605F001050095334D06EB050C8A
:10272000DCF80850A607360F07FA06F825EA080570
:10273000DFF8B880404503D14FF0000817E044E0CF
:10274000DFF8AC80404502D14FF001080FE0DFF820
:10275000A480404502D14FF0020808E0DFF89880DD
:10276000404502D14FF0030801E04FF0040808FA99
:1027700006F848EA0508CCF808804D68D9F80060EA
:10278000ED024D4601D5164300E096432E604D689C
:10279000DAF80060AD02554601D5164300E09643D5
:1027A0002E604D68DBF80060AD035D4601D5164331
:1027B00000E096432E604D68DEF80060ED0375463C
:1027C00001D5164300E096432E60641C0D682A462E
:1027D000E5407FF431AFBDE8F88F00000804014008
:1027E00000001110001002400000014000080140EC
:1027F000000C0140001001400014014080680840B6
:1028000000D0012070470AB1016170470904FBE75D
:10281000014880687047000000000020024881687D
:10282000027811448160704700000020074810B50D
:10283000016841F010010160032000F075F80F20DD
:1028400000F006F800F024F8002010BD002002403F
:1028500070B50D4D04464FF47A712878B1FBF0F055
:102860000A490968B1FBF0F000F094FB48B9102C5C
:1028700007D200222146501E00F036F800206C607E
:1028800070BD012070BD0000000000200C00002081
:102890000C4808B5816941F001018161816901F04D
:1028A00001010091C16941F08051C161C06900F02E
:1028B000805000900448416821F0E06141F00071CF
:1028C000416008BD0010024000000140002809DB03
:1028D00000F01F02012191404009800000F1E0203A
:1028E000C0F8001170470000F0B40E4B1B680C4696
:1028F000C3F30223C3F10705042D00D90425191DD4
:10290000072901D2002300E0DB1E012606FA05F1AB
:10291000491E214099409E40761E16403143F0BC2E
:1029200001F05EBD0CED00E0064900F0070208680A
:102930004FF6FF03184040EA0220034A10430860A4
:10294000704700000CED00E00000FA0510B50146EC
:102950000020234C012922D0022939D010291DD171
:1029600061682268D20119D51E48C1F38342C903A8
:10297000805C0AD561681B4AC1F34041921E515CDC
:10298000194AB2FBF1F1484301E018494843616834
:10299000490203D440000321B0FBF1F010BD226ACC
:1029A000C2F30121012903D1920701D5C80310BD4B
:1029B000022905D1626A920702D549F6404010BD4E
:1029C0000329FCD121688903F9D54FF2244010BDB9
:1029D00000F01AF96168C1F38131491C4900DBE755
:1029E000001002407058000800127A0000093D00F3
:1029F0002DE9F84305460078354CC00754D0E0690E
:102A00000026C00008D4E06940F08050E061E06931
:102A1000012600F0805000902E480168C90512D4AC
:102A20000168804641F480710160FFF7F1FE0746BE
:102A300005E000BFFFF7ECFEC01B642823D8D8F8E0
:102A40000000C005F6D5206A10F4407021D0A98896
:102A500001F4407181421CD0206A1F49012220F4F8
:102A600040700A6000220A602062C00711D0FFF7A0
:102A7000CFFE074641F2883808E000BFFFF7C8FEE6
:102A8000C11B414502D90320BDE8F883206A8007B5
:102A9000F4D5206A696820F44070084320621EB1B2
:102AA000E06920F08050E0612878800705D56068F3
:102AB000A96820F44040084360602878C00605D526
:102AC0006068E96820F48000084360600020DBE76C
:102AD0000010024000700040400442422DE9F047DF
:102AE0000F46050061D0434E306800F00700B84241
:102AF00009D2306820F0070038433060306800F0B9
:102B00000700B84251D128683B4C810712D54007D5
:102B100003D5606840F4E06060602878000703D562
:102B2000606840F4605060606068A96820F0F00060
:102B3000084360602878C00728D06868012810D052
:102B40002168022810D0890700292EDA616821F057
:102B5000030101436160FFF75BFE804641F2883963
:102B60000DE021688903EFE78901EDE7FFF750FEEB
:102B7000A0EB0801494502D90320BDE8F087606851
:102B8000696800F00C00B0EB810FEFD1306800F005
:102B90000700B8420BD9306820F007003843306096
:102BA000306800F00700B84201D00120E5E728783E
:102BB000400705D56068E96820F4E060084360607C
:102BC0002878000706D56068296920F4605040EA3B
:102BD000C100606000F028F86168084AC1F3031181
:102BE000515CC8400649086006480068FFF730FE9F
:102BF0000020C2E700200240001002408058000878
:102C00000C000020040000200448054900684968C1
:102C1000044AC1F3C221515CC84070470C00002037
:102C200000100240905800080E4A51680E4801F00A
:102C30000C03042B11D0082B0FD10C48C1F3834394
:102C4000C903C05C0AD55168084AC1F34041921ECD
:102C5000515C054A5043B0FBF1F0704704494843CA
:102C6000704700000010024000127A005E58000811
:102C700000093D002DE9F84F040070D02078C04DC8
:102C8000C00749D06868C0F38100012807D0686890
:102C9000C0F38100022809D16868C00306D52868FE
:102CA000800339D560680028E7D035E06068B0F56A
:102CB000803F0BD010B1B0F5A02F11D0286820F4C0
:102CC00080302860286820F4802002E0286840F4E2
:102CD00080302860606890B1FFF79AFD06460AE0F0
:102CE000286840F480202860F0E700BFFFF790FDDF
:102CF000801B642873D828688003F7D50CE0FFF7A1
:102D000087FD064605E000BFFFF782FD801B6428B3
:102D1000F0D828688003F7D420789A4E80074FF0C7
:102D200001094FF0000839D5686810F00C0F07D082
:102D30006868C0F38100022809D16868C00306D41E
:102D40002868800714D52069012808D110E020697F
:102D5000B0B1C6F80090FFF75BFD074605E00AE159
:102D6000FFF756FDC01B0228C4D828688007F7D596
:102D70002868616920F0F80040EAC10028600DE091
:102D8000C6F80080FFF744FD074604E0FFF740FD6A
:102D9000C01B022823D828688007F7D420780007B2
:102DA0002CD57948A169D9B1C0F80090FFF730FD62
:102DB000074604E0FFF72CFDC01B02280FD8686A05
:102DC0008007F7D571484FF4FA510068B0FBF1F075
:102DD000009000BF0098411E0091FAD20EE080E002
:102DE000C0F80080FFF714FD074604E0FFF710FD70
:102DF000C01B022875D8686A8007F7D4207840077E
:102E000060D5E8690027C00008D4E86940F0805028
:102E1000E861E869012700F0805000905C48016893
:102E2000C90513D40168834641F480710160FFF73E
:102E3000EFFC824606E000BFFFF7EAFCA0EB0A00C9
:102E400064284ED8DBF80000C005F5D5E0680128FD
:102E50000AD008B1052813D0286A20F001002862A2
:102E6000286A20F0040002E0286A40F0010028628D
:102E7000E06841F2883B98B1FFF7CAFC82460BE05C
:102E8000286A40F004002862EEE700BFFFF7C0FCAC
:102E9000A0EB0A0159455AD8286A8007F6D50CE0FC
:102EA000FFF7B6FC824605E0FFF7B2FCA0EB0A0193
:102EB00059454CD8286A8007F6D41FB1E86920F03C
:102EC0008050E861E06988B36968C1F38101022933
:102ED00044D00228C6F8608004D0FFF799FC04466D
:102EE00038E034E0FFF794FC074604E0FFF790FC7D
:102EF000C01B02282BD828688001F7D4206AB0F5BF
:102F0000803F05D16868A16820F4003008436860FC
:102F1000D4E908010843696821F474110843686022
:102F2000C6F86090FFF774FC044606E025E000BF99
:102F3000FFF76EFC001B022809D828688001F7D52E
:102F40001BE000BFFFF764FC001B022802D903202E
:102F5000BDE8F88F28688001F4D40EE00128F7D08E
:102F60006868226A00F48031914204D1616A00F4F9
:102F70007010884201D00120EAE70020E8E7000055
:102F80000010024000004242800442420C00002037
:102F90000070004010B5401EB0F1807F01D30120C9
:102FA00010BD4FF0E02460610F21601701F018FAA6
:102FB0000020A06107202061002010BD10B590F80E
:102FC0003C20012A22D0012280F83C20CA688C686B
:102FD00022F4407222434C6822F4806222430C683F
:102FE00022F4006222430C6922F4805222434C698D
:102FF00022F400522243C969002322F480420A438A
:1030000001684A6480F83C30002010BD022010BDE9
:1030100070B590F83C20012A26D0012480F83C406D
:10302000022280F83D2003685A689D6822F07006ED
:103030000A6832435A600D4B02689A4208D0B2F1D6
:10304000804F05D00A4B9A4202D00A4B9A4204D1D3
:10305000496825F080031943916080F83D400021C4
:1030600080F83C10084670BD022070BD002C014065
:10307000000400400008004010B5040003D094F89C
:103080003D0010B107E0012010BD002084F83C0095
:10309000204600F01FF8022084F83D00211D206822
:1030A00001F068F8012084F8460084F83E0084F8B6
:1030B0003F0084F8400084F8410084F8420084F81E
:1030C000430084F8440084F8450084F83D00002063
:1030D00010BD000008B500680649884208D10648BE
:1030E000816941F400618161806900F400600090B1
:1030F00008BD0000002C01400010024070B50446DD
:1031000090F83C000025012817D0012684F83C6087
:10311000022084F83D002068826822F0770222F4C1
:103120007F4282600868502838D00DDC20284FD0BC
:1031300005DC90B3102811D14AE0022070BD302880
:1031400046D040280AD13BE060282FD070280DD00F
:10315000B0F5805F03D0B0F5005F12D0012584F890
:103160003D60002084F83C00284670BDCB68D1E962
:103170000121206801F047F82068816841F077015B
:1031800009E0CB68D1E90121206801F03CF8206812
:10319000816841F480418160E1E719E0CA684968CB
:1031A000206801F0E5F85021206806E0CA68496807
:1031B000206801F0EEF86021206801F02EF8CEE7DB
:1031C000CA684968206801F0D3F840212068F4E714
:1031D000226801461046F0E700B585B00021009155
:1031E00001910291039100680C49884213D10C4867
:1031F000816941F0040181618069694600F0040041
:1032000004904FF47060009002200190032003901E
:103210000448FFF703FA05B000BD0000002C014090
:10322000001002400008014070B5044690F83C00D0
:1032300000260D4601280FD0012084F83C006AB119
:10324000042A1DD0082A2FD00C2A3FD001260020A6
:1032500084F83C00304670BD022070BD206800F04C
:10326000E5FF2068816941F008018161206881697A
:1032700021F004018161206881692A69114311E00C
:10328000206800F0FBFF2068816941F400618161E2
:103290002068816921F480618161206881692A69DF
:1032A00041EA02218161D2E7206801F013F8206829
:1032B000C16941F00801C1612068C16921F00401C0
:1032C000C1612068C1692A69114311E0206801F0D9
:1032D0002DF82068C16941F40061C1612068C169AD
:1032E00021F48061C1612068C1692A6941EA022133
:1032F000C161ACE710B5040003D094F83D0010B1F3
:1033000007E0012010BD002084F83C00204600F0BA
:103310001EF8022084F83D00211D206800F02AFFDD
:10332000012084F8460084F83E0084F83F0084F8C9
:10333000400084F8410084F8420084F8430084F897
:10334000440084F8450084F83D00002010BD70471B
:1033500010B50446022249B104290ED0082913D021
:1033600094F84100012816D0012010BD94F83E00C9
:103370000128F9D184F83E200FE094F83F0001289D
:10338000F2D184F83F2008E094F840000128EBD106
:1033900084F8402001E084F841200122206800F0F8
:1033A00025FF0F492068884203D1426C42F4004255
:1033B00042642068884208D0B0F1804F05D00949A6
:1033C000884202D00849884204D1816801F007018F
:1033D000062903D0016841F001010160002010BD01
:1033E000002C01400004004000080040FEE710B53A
:1033F00000F00AF86420FEF799FDBDE8104000F0E7
:103400000BB800F011B80000002280210148FFF73E
:10341000FAB9000000080140012280210148FFF7AD
:10342000F2B9000000080140002240210148FFF7E6
:10343000EAB90000000801402DE9F0473B2000F008
:10344000B1F804463C2000F0ADF840EA042004B294
:103450003D2000F0A7F805463E2000F0A3F840EA22
:1034600005200FFA80F93F2000F09CF80546402027
:1034700000F098F840EA05200FFA80F8432000F0A9
:1034800091F80546442000F08DF840EA052007B287
:10349000452000F087F80546462000F083F840EA12
:1034A000052006B2472000F07DF80546482000F0D0
:1034B00079F840EA052005B2204601F006FD6FF0DC
:1034C0000E0A524602F05EF9042202F05BF901F0A6
:1034D0004BFA224C2060484601F0F7FC524602F0BD
:1034E00051F9042202F04EF901F03EFA60604046C4
:1034F00001F0EBFC524602F045F9042202F042F9D9
:1035000001F032FAA060384601F0DFFC524602F0CA
:1035100039F9134F00223B4601F002FD01F024FA75
:10352000E060304601F0D1FC524602F02BF9002257
:103530003B4601F0F5FC01F017FA2061284601F046
:10354000C4FC524602F01EF900223B4601F0E8FCA2
:1035500001F00AFA6061BDE8F08700001000002069
:1035600000409F40752000F01DB810B500F0D0F964
:1035700001216B2000F05AF800216C2000F056F871
:103580000921192000F052F806211A2000F04EF807
:1035900018211B2000F04AF81821BDE810401C201B
:1035A00000F044B810B5044600F017FAD02000F03F
:1035B000FEF900F0C5F9204600F0F9F900F0C0F975
:1035C00000F00BFAD12000F0F2F900F0B9F900F0A8
:1035D000C9F90446012000F0DFF900F08DF920461A
:1035E00010BD000001480068704700001000002076
:1035F00001484068704700001000002001488068C2
:1036000070470000100000200148C06870470000AB
:1036100010000020014800697047000010000020E1
:1036200001484069704700001000002070B50D4649
:10363000044600F0D2F9D02000F0B9F900F080F98A
:10364000204600F0B4F900F07BF9284600F0AFF90D
:1036500000F076F9BDE8704000F04EB93EB50021AB
:10366000174800910191154A0291026092158260FB
:1036700001240473017502254FF460220561C261C3
:103680004160FEF75FFD08B1FEF76BFC052000947A
:10369000CDE9014069460A48FEF7D2FC08B1FEF7C1
:1036A00060FC0420CDE9000569460548FEF7C8FC2A
:1036B000002801D0FEF755FC3EBD0000002401406B
:1036C00050000020094808B5416941F001014161FD
:1036D0004069002200F00100009011460B20FFF726
:1036E00003F9BDE808400B20FFF7F0B800100240D6
:1036F000F0B585B0002000900190029003901F4823
:10370000816941F020018161816901F0200104910A
:10371000816941F004018161816901F00401049132
:10372000816941F0080181618069154E00F008004F
:1037300004900022C0213046FFF765F8114F4FF486
:103740007065002229463846FFF75DF8C020012445
:10375000CDE9000402200290039069463046FEF74E
:103760005DFF11200095CDE9010403200390694617
:103770003846FEF753FF05B0F0BD000000100240D0
:1037800000080140000C014010B596B000240F94D1
:1037900010941194129413941C2168461494FCF70D
:1037A0007BFD202107A8FCF777FD344832490160F2
:1037B0004721C0E901146321C0E903144461846115
:1037C000FFF75AFC08B1FEF7CCFB4FF480500F9086
:1037D0000FA92A48FFF792FC08B1FEF7C2FB274861
:1037E000FFF788FD08B1FEF7BCFB139413A923482B
:1037F0001494FFF70DFC08B1FEF7B3FB6020CDE990
:1038000000040294039404940594002269461B4822
:103810000694FFF709FD08B1FEF7A3FB04226946F1
:103820001648FFF701FD08B1FEF79BFB0822694629
:103830001248FFF7F9FC08B1FEF793FB0C2269462A
:103840000E48FFF7F1FC08B1FEF78BFB07940894D4
:1038500009944FF400500A94CDE90B4007A907489A
:103860000E94FFF7ABFB08B1FEF77BFB0348FFF7B5
:10387000B3FC16B010BD0000002C0140C4000020B5
:10388000FEE7000010B500210C48FFF761FD0421A0
:103890000A48FFF75DFD08210848FFF759FD0C2194
:1038A0000648FFF755FD054800210268516302688C
:1038B00091630268D1630068016410BDC4000020F8
:1038C0000C4B1A6870B101280ED002280ED00328C4
:1038D0000ED000205063196888631968C86319689E
:1038E0000864704751637047916370471164704773
:1038F000D1637047C400002010B5002000F08AF8A2
:10390000012000F079F8BDE81040012000F082B8F5
:1039100010B5012000F070F8BDE81040012000F063
:1039200079B8000010B50A20FEF70BFBBDE8104087
:103930004FF400610148FEF761BF0000000C014038
:1039400010B5012000F066F8012000F055F8FFF7EF
:10395000E9FF28B10024002000F04EF8204610BDF9
:103960000124F8E770B50025012000F053F8002489
:103970008026012000F040F8FFF7D4FF012802D193
:1039800026FA04F00543002000F036F8641CE4B287
:10399000082CEED3284670BD10B500F03BF801208E
:1039A00000F02AF8BDE81040002000F025B870B5FE
:1039B00000240646802525FA04F0304000D001207E
:1039C00000F028F8012000F017F8002000F014F8AB
:1039D000641CE4B2082CEED370BD10B5012000F0D9
:1039E00019F8012000F008F8002000F013F8BDE8F5
:1039F00010400020AFF3008010B502464FF4806104
:103A00000348FEF700FFBDE810400A20FEF799BA10
:103A1000000C014010B502464FF400610348FEF768
:103A2000F2FEBDE810400A20FEF78BBA000C014000
:103A3000FEE7000010B50021074C0A46002004EB09
:103A4000C1131A54401CC0B28028FAD3491CC9B211
:103A50000829F3D310BD00000C010020F0B50B4481
:103A600024E0044685181DE07F2C19D8002917DBB7
:103A70003F2915DCCE1701EB56764FEAE60C0D4FC9
:103A800026F0070607EBCC172744A1EB060E97F8A4
:103A900000C0012606FA0EF62CEA060C87F800C0D4
:103AA000641C24B2A542DFDC491C09B28B42D8DC7D
:103AB000F0BD00000C01002010B500204FF47A7218
:103AC0000021491C9142FCD3401C9042F8D3FFF7DF
:103AD0000FFE012000F0F8F9BDE81040012000F0D1
:103AE000FBB970B500240646802525FA04F0304065
:103AF00000D0012000F0F0F9012000F0E5F90020ED
:103B000000F0E2F9641CE4B2082CEED3012000F0CE
:103B1000DBF9BDE87040002000F0D6B910B50120F7
:103B200000F0DAF9012000F0CFF9002000F0D4F91C
:103B3000BDE81040002000F0C7B910B5002000F02B
:103B4000CBF9012000F0C0F9BDE81040012000F0E1
:103B5000C3B910B5FFF7B0FFAE2000F0C5F9D5200E
:103B600000F0C2F9802000F0BFF9A82000F0BCF9F5
:103B70003F2000F0B9F9D32000F0B6F9002000F0A2
:103B8000B3F9402000F0B0F9A12000F0ADF9C82051
:103B900000F0AAF9DA2000F0A7F9122000F0A4F949
:103BA000812000F0A1F9CF2000F09EF9D92000F08B
:103BB0009BF9F12000F098F9DB2000F095F9302016
:103BC00000F092F9A42000F08FF9A62000F08CF903
:103BD0008D2000F089F9142000F086F9AF2000F064
:103BE00083F9FFF727FFBDE8104000F059B90FB483
:103BF00070B5C0B014460D46064648AA68464799B7
:103C0000FCF738FB23466A462946304600F092F816
:103C100040B070BC5DF814FB10B50C4640F0B0002D
:103C200000F062F9102040EA141000F05DF904F091
:103C30000F00BDE8104000F057B9000008B5082B90
:103C40000DD0062B0AD10A4B02EB420203EB4202D3
:103C5000C03A00920823062200F00EF808BD054B7A
:103C600003EB0212A2F50072102300920822F3E780
:103C7000885E0008985800082DE9F04F1F46164648
:103C80000D4682460024FFF7E9FE7F1EF81707EB7A
:103C900050700121DFF898B001EBE00743E000200D
:103CA0003DE000BF0AEB00037F2B36D8E91705EB98
:103CB0005171CA1021F00701691A002D03DA521E52
:103CC000083112B209B202EB0409B9F1070F0ED89C
:103CD000099A04FB06F802440BEBC91E18F80220EF
:103CE0001EF803C08A404CEA020C0EF803C009F12A
:103CF0000102072A11D80BEBC91202EB0308099A3B
:103D000004FB06FC024498F880301CF80220C1F144
:103D10000801CA40134388F88030401CC0B2B0424A
:103D2000C0D3641CE4B2A742B9DCBDE8F08F000048
:103D30000C0100202DE9FF4F002483B09B469046E4
:103D40002546A246DFF850919EE0100610D4039855
:103D50008DF80420641C2844A4B28DF805A000B29C
:103D60005B460499FFF76AFF05EB0B0085B28BE019
:103D70000620B0EB521F0ED1641CA0B28DF80420B7
:103D800018F80010002974D08DF80510401C84B27A
:103D90008DF806A03CE00E20B0EB121F16D1641C7B
:103DA000A0B28DF8042018F80010002971D0401C32
:103DB00080B28DF8051018F80010002969D08DF830
:103DC0000610401C84B28DF807A021E01E20B0EB45
:103DD000D20F1FD1641CA0B28DF8042018F8001077
:103DE000002956D0401C80B28DF8051018F800103C
:103DF00000294ED0401C80B28DF8061018F8001033
:103E0000002946D0401C8DF8071084B28DF808A018
:103E1000002609E0641CA4B236E0384601A9FCF78C
:103E200063FA68B1761CB6B206EB860000EB461169
:103E300001EB0900074619A1FCF756FA0028ECD15E
:103E4000BBF1080F03D0BBF1060F1DD112E006EB4A
:103E5000860000EB461101EB0900401D009003981D
:103E60001023284400B21A460499FFF705FF1035C5
:103E700009E00EE003980623284400B23F2204998B
:103E8000FFF7DCFEAD1DADB218F80420002A7FF468
:103E90005CAF07B0BDE8F08FC26000080000000012
:103EA00070B5084D002400212046FFF7B5FE05EB54
:103EB000C410802100F029F8641CE4B2082CF2D36D
:103EC00070BD00000C01002002464FF480710148D3
:103ED000FEF799BC000C014002464FF40071014806
:103EE000FEF791BC000C014010B50446FFF716FE2A
:103EF0007820FFF7F6FD0020FFF7F3FD2046FFF7DF
:103F0000F0FDBDE81040FFF718BE70B50D4606463F
:103F1000FFF704FE7820FFF7E4FD4020FFF7E1FD06
:103F2000002404E0305DFFF7DCFD641CE4B2AC4229
:103F3000F8D3BDE87040FFF700BE704710B50748E2
:103F4000FEF712F8022206490448FEF7D1F9FFF7FE
:103F500058FABDE81040FFF75FBA0000500000209B
:103F60004A00002070B504461348144B811E058892
:103F70000878002223F810501425401CB0FBF5F6F9
:103F800005FB16000870114633F81100491C104457
:103F9000C9B282B21429F7D3B2FBF5F001F0DCFA12
:103FA000074901F0E3F9074901F0EAFA012101F0BC
:103FB00017FC206070BD00004A000020240500208E
:103FC00000F07F453333534070B5022000F03CF8D9
:103FD0000446012000F038F840EA042004B204202E
:103FE00000F032F80546032000F02EF840EA0520E4
:103FF00005B2062000F028F80646052000F024F857
:1040000040EA062006B2204601F08EFA054C2060F8
:10401000284601F089FA6060304601F085FAA06018
:1040200070BD00003C000020002000F00DB810B56D
:10403000FFF76EFCFF210A2000F044F80121BDE8E3
:1040400010400B2000F03EB810B50446FFF7C5FC49
:104050005820FFF7ACFCFFF773FC2046FFF7A7FCE6
:10406000FFF76EFCFFF7B9FC5920FFF7A0FCFFF744
:1040700067FCFFF777FC04460120FFF78DFCFFF794
:104080003BFC204610BD0000034810B5006801F05D
:104090002FFA00B210BD00003C000020034810B50C
:1040A000406801F025FA00B210BD00003C0000207D
:1040B000034810B5806801F01BFA00B210BD000083
:1040C0003C00002070B50D460446FFF786FC5820E2
:1040D000FFF76DFCFFF734FC2046FFF768FCFFF7A5
:1040E0002FFC2846FFF763FCFFF72AFCBDE8704071
:1040F000FFF702BC7047FEF791BB30B593B02821A3
:104100006846FCF7C9F814210AA8FCF7C5F8002591
:1041100001200F9510951195010412958DE823004B
:1041200004904FF4E010CDE908100224079468468B
:10413000FEF7A0FD08B172B6FEE70AA90F2081E8DC
:1041400031004FF48060CDE90D0502210AA8FEF789
:10415000C5FC08B172B6FEE74FF4004011900F9411
:104160000FA8FEF745FC002801D072B6FEE713B099
:1041700030BD7047F0B50268194B1A4C1A4D4FF01C
:104180008047984205D0B84203D0A04201D0A8424F
:1041900003D122F070064A683243984205D0B842F3
:1041A00003D0A04201D0A84203D122F44074CA68CF
:1041B00022434C6922F08002224302608A68C26274
:1041C0000A688262984201D1096901630121416153
:1041D0000169C90703D0016921F001010161F0BD46
:1041E000002C0140000400400008004010B501F020
:1041F0001F030121046A99408C430462016A9A40BA
:104200001143016210BD10B5846842EA032224F410
:104210007F440A432243826010BD826822F070020C
:104220000A4342F0070181607047000030B5036A1D
:10423000026A22F0010202624268846924F0730576
:104240000C682C4323F002058B682B430A4DA842CF
:104250000BD123F00805CB6822F440722B434D6943
:1042600023F0040315438A692A4342608461496844
:104270004163036230BD0000002C014030B5026A8A
:10428000036A23F010030362436884690D6824F411
:10429000E64444EA05248D6822F0200242EA051231
:1042A0000B4DA8420ED1CD6822F0800242EA0512E1
:1042B0004D6923F4406343EA85038D6922F040028F
:1042C00043EA85034360846149688163026230BDCB
:1042D000002C014030B5036A026A22F48072026247
:1042E0004268C46923F4007324F073050C682C43FE
:1042F0008D6843EA05230C4DA8420ED1CD6823F406
:10430000006343EA05234D6922F4405242EA051254
:104310008D6923F4806342EA05124260C4614968F2
:10432000C163036230BD0000002C014030B5046A57
:10433000026A22F4805202624268C3690D6823F463
:10434000E64343EA05238D6824F4005444EA053427
:10435000064DA84204D14D6922F4804242EA8512FA
:104360004260C36149680164046230BD002C0140B1
:1043700010B5036A046A24F001040462846924F01D
:10438000F00444EA021423F00A020A438461026240
:1043900010BD10B5036A046A24F010040462846935
:1043A00023F0A00324F4704444EA023243EA0111EA
:1043B0008261016210BDFEE7490050EAC12018BFCA
:1043C00004204A0D18BF40F0010040F2FF72B2EB2A
:1043D000515F08BF40F00200012808BF0520704768
:1043E0000907090E002804DB00F1E02080F8001422
:1043F000704700F00F0000F1E02080F8141D7047B6
:1044000030380A2801D20120704700207047000090
:104410002DE9F14F734E706800F057FD4FF0FF32F9
:1044200001F0B0F90022704B00F084FE36680446BB
:104430000D46B6F9100000F048FD074688462246B2
:104440002B461046194600F06BFD43463A4600F0F5
:1044500067FD6FF00E0201F095F981460F46B6F93F
:104460000E0000F032FD22462B4600F059FD0122DD
:1044700001F088F94A463B4600F0A8FA80468A4691
:10448000B6F90C0000F021FD102201F07BF907467F
:1044900089466FF001024046514601F073F93A46F1
:1044A0004B4600F093FA82468B46B6F9080000F0BE
:1044B0000CFD22462B4600F033FD07468946B6F92F
:1044C0000A0000F002FD22462B4600F029FD22469C
:1044D0002B4600F025FD6FF01204224601F052F940
:1044E0003A464B4600F072FA224601F04BF9044678
:1044F0000D46F08800F000FD07460E466FF00E02F4
:104500002046294601F03EF90022384B00F05EFAC1
:104510003A46334600F004FD002204460D46134699
:1045200000F068FC03D100200146BDE8F88F009838
:1045300000F0CBFC00222E4B00F0F0FD07460E46AB
:104540006FF00B025046594601F01CF93A463346CB
:1045500000F0E4FD0022274B00F0E2FC22462B464F
:1045600000F0F0FA04461F480E460568B5F916003B
:1045700000F0ABFC2246334600F0D2FC2246334624
:1045800000F0CEFC6FF01E0201F0FCF882468B4674
:10459000B5F9140000F099FC2246334600F0C0FC47
:1045A0006FF00E0201F0EEF881468846B5F9120070
:1045B00000F08BFC05460F464A4643465046594696
:1045C00000F004FA2A463B4600F000FA6FF00302BE
:1045D00001F0D8F801B022463346BDE8F04F00F0B4
:1045E000F5B90000340000200040EF400000F03F2B
:1045F00000003041006AB8402DE9FC5FDFF8BCB034
:104600000646DBF80070B7F9020000F05EFC0446D5
:104610000D46388800F070FC80466FF00902019169
:1046200001F0B0F881468A46304600F04EFC06465E
:104630006FF00D02009101F0A5F84A46534600F0D4
:1046400079FD22462B4600F06BFC04460D46B7F977
:10465000040000F03AFC81468A4640466FF00C02A6
:10466000019901F08FF80746884630466FF0100236
:10467000009901F087F83A46434600F05BFD024698
:104680000B4600F04DFC4A46534600F049FC0746F5
:104690000E4622462B4600F099F900F0E7FBCBF8D6
:1046A00004003A4633462046294600F08FF902B00E
:1046B0000022BDE8F05F024B00F044BA3400002055
:1046C0000000B44086B0FEF7B1F8FFF716FDFFF723
:1046D0000FF8FEF7F7FFFEF7C1FFFFF755F8FFF7FA
:1046E00038FAFEF742FFFFF7A2FCFDF7FDFAFFF7ED
:1046F00025FCFEF786FEFFF7C5F8FEF733FF002125
:10470000009064A306220846FFF771FAFFF78CFCBD
:10471000009060A3062200211220FFF768FAFDF73F
:10472000B5FA00905BA3062200212420FFF75FFA70
:10473000FFF7B6FB0A20FDF7F9FB4FF47A7A00BFCA
:10474000FEF755FEFEF778FEFFF73EFCFDF7B6FAE2
:1047500080468946FDF79DFA05460E4604A8FFF7F8
:1047600001FC049800F0D0FDCDE900014AA3062227
:1047700000213220FFF73BFA002457462146012052
:10478000FFF79EF83846FDF7D1FB46A3062200212D
:1047900064200094FFF72BFAFFF782FB641CE4B25D
:1047A000642CEBD9642421460120FFF789F83846B0
:1047B000FDF7BCFB3BA30622002164200094FFF719
:1047C00016FAFFF76DFB641E14F0FF04EBD1FEF741
:1047D0000FFF00F099FD04460F46FEF703FF00F0BF
:1047E00093FD8DE8930031A3062208210020FFF7F6
:1047F000FEF9FEF709FF00F087FD04460F46FEF7BD
:10480000FDFE00F081FD8DE893002DA3062210210E
:104810000020FFF7ECF9FEF703FF00F075FD0446FA
:104820000F46FEF7F7FE00F06FFD8DE8930029A319
:10483000062218210020FFF7DAF9FFF72FFC0446C3
:10484000FFF722FCCDE9000427A306222021002047
:10485000FFF7CDF9FFF72CFC009027A306222821B3
:104860000020FFF7C4F926A3062230210020CDE95D
:104870000089FFF7BCF9CDE9005623A306223821B1
:104880000020FFF7B4F9FFF70BFB3220FDF74EFBDA
:1048900056E7000025580000563A252B2E32665662
:1048A00000000000253033642000000041583A2504
:1048B0002B2E32662C41593A252B2E3266000000F1
:1048C000415A3A252B2E32662C47583A252B2E3248
:1048D0006600000047593A252B2E32662C475A3A7B
:1048E000252B2E32660000004D583A253035642CB9
:1048F0004D593A25303564004D5A3A25303564001B
:1049000054202566430000005020256650610000B9
:1049100010B500290AD00878002807D00548784447
:10492000FBF7E2FC002801D0002010BD02487844CB
:1049300010BD0000C6190000BE19000010B5002906
:104940000AD00878002807D005487844FBF7CCFC4B
:10495000002801D0002010BD0248784410BD00009E
:10496000B6190000AE19000021F00042A2F1605219
:10497000B2F5801F01F0004328BFD2F17F6C0BD944
:104980005FEA001C43EAC20242EB507018BF704756
:1049900028BF20F001007047B2F5801FBCBF184649
:1049A00070474FEA410C1CF5001F02D2084600F088
:1049B000AEBE70B500F05EFB00000089FFF7F6BFE9
:1049C0004FF00040A0F580007047000010B591EA5C
:1049D000030F48BF83F0004300F1B483841A71EBE6
:1049E000030C05D2121943EB0C03001B61EB0C0105
:1049F000DFF824E14FEA1154A4EB135C1EEA430FE5
:104A000018BF9EEA445F73D023EA0E03DCF1200E48
:104A100021EA045143F4801332D322FA0CFE10EB46
:104A20000E0023FA0CFE41EB0E01CCF1200E03FA2E
:104A30000EFE10EB0E0051F10001B1F5801FCCF11C
:104A4000200E32D201EB045112FA0EF2BDE81040F2
:104A500058BF7047401C38BF5FEA420218BF70471A
:104A6000002814BF20F0010041F100014FEA41038A
:104A700013F5001F38BF7047A1F1C04100F048BBDB
:104A8000012A43EB0302ACF1200CDCF11F0E32BF14
:104A90004FF0000E23FA0CF310EB030041EB04512E
:104AA000B4EB115FD0D0A1EB045101F5801149089E
:104AB0005FEA300001EB04510ED350F1000038BF23
:104AC00012FA0EFE08D1BDE81040C9E7401C38BFFD
:104AD0005FEA4202CAD1C3E7BDE810404FEA410392
:104AE00013F5001F38BF7047A1F1C04100F010BBA3
:104AF0009EEA445F08D011EA5E0FBDE8104004BF93
:104B000001F0004100207047BDE8104070B500F092
:104B1000B1FA00BF64FBBE3E0000E0FF02494FF067
:104B2000000000F0FDBD00BF0000F87F491058BF35
:104B3000C1F140415B1058BFC3F140438B42EFF3DA
:104B4000008070472DE9C04130B4DFF8A0C23CEAD4
:104B5000111418BF3CEA131400F0EC8081EA03053D
:104B60001CEA111444EAD57418BF1CEA131500F0AE
:104B7000C780A4EB05044FF0004545EAC12145EA92
:104B8000C32341EA505143EA525304F17F749942DE
:104B900004F500344FEAC0204FEAC22208BF904219
:104BA00000F09C804FEA13650FF24016765D4FEAE5
:104BB000134506FB05F7C7F1807706FB07F74FEAB9
:104BC000D737A7FB03687642C8F58038A7FB06CE27
:104BD00038BFA8F1010807FB08E64FF0000EA6FB5E
:104BE000028CE6FB03CEDCF1000CCEF1004E38BFA8
:104BF000AEF1010EA6FB0C584FF000074FF0000578
:104C0000E6FB0E87A1FB08C6A0FB07CE16EB0E063F
:104C100045F10005E1FB076515F1E04E7EBFA4F507
:104C200080345FEA46066D4116F1800745F10005C4
:104C30004FEA17274FEA066647EA0567A6F1DE4600
:104C4000B6F1805F4FEA15251FD9384624F0010CD4
:104C500005EBC471BCF1FE6F01EB0C1102D8F0BC86
:104C6000BDE8008124425CBF01F5801E9EEAC47F3E
:104C700002D4F0BCBDE80081244238D4F0BCA1F1DC
:104C8000C041BDE8004100F043BA4FEAD22242EAF7
:104C900043524FEAD323A7FB02864FEAD02040EAD3
:104CA000415007FB03661EEA0E0F4FEAD12105FBB8
:104CB000026658BFA6EB0056B6EB00564FEA520EFE
:104CC0004EEAC37E18EB0E0E56EB530EBDD518EB15
:104CD00002085E417F1C55F10005B6E74FF48015D0
:104CE0004FF000074FF000064FF00008ADE7F0BCB2
:104CF0004FF0000001F1C04101F00041BDE800812A
:104D000011EA0C1F0CEA131500D00CE013EA0C1F7B
:104D100000F025804FF00000F0BC81EA030101F0B3
:104D20000041BDE80081F0BCBDE8004181EA03011B
:104D300000F0EEB9F0BCBDE8004170B500F09AF9A2
:104D4000097EFC3E00F007B881EA03014FF0000045
:104D500001F00041704781EA030100F0D9B9F0BCCD
:104D6000BDE800414FF0000021497047FFFDFBF90D
:104D7000F7F5F4F2F0EEEDEBE9E8E6E4E3E1E0DE8E
:104D8000DDDBDAD8D7D5D4D3D1D0CFCDCCCBCAC800
:104D9000C7C6C5C4C2C1C0BFBEBDBCBBBAB9B8B727
:104DA000B6B5B4B3B2B1B0AFAEADACABAAA9A8A81A
:104DB000A7A6A5A4A3A3A2A1A09F9F9E9D9C9C9BE8
:104DC0009A99999897979695959493939291919093
:104DD0008F8F8E8E8D8C8C8B8B8A89898888878724
:104DE0008685858484838382828181800000FF0799
:104DF0000000F87F51EA030C17D41CF5801F58BF40
:104E0000BCF5801F00F10680994218BF704708BFAB
:104E10009042704707D711F5801F58BF13F5801FC8
:104E200019D499427047894270471CF5801F08D5F4
:104E3000BCF5801FF7D58B4218BF704708BF824270
:104E400070474FF4001C1CEB410F38BF1CEB430FA5
:104E500001D28B42704770B500F00CF992244900E2
:104E60004FF000514FF08053FFF760BE4FEA41030F
:104E70004FEA5353A3F58063D3F11E03C8BFD3F1A8
:104E8000210C0CDD4FF0004242EAC12242EA5052AE
:104E900032FA03FC8CEAE17CACEBE1707047102B3A
:104EA000C4BF0020704703F5787CBCF1FF3F04D0FD
:104EB0006FF0004282EA2100704770B500F0DAF826
:104EC0004992248000207047F2E710F0004248BF6A
:104ED0004042B0FA80F310FA03F10AD0C3F11D0387
:104EE00003F580634FEA415002EB035202EBD121FC
:104EF00070474FF000007047B0FA80F310FA03F1EA
:104F00000AD0C3F11D0303F580634FEA41504FEA15
:104F1000035202EBD12170474FF0000070470000B0
:104F2000DFF848C170B51CEA111E1EBF1CEA13153C
:104F30009EEA0C0F95EA0C0F00F06F8081EA0304E3
:104F400023EA4C134EEAD47E21EA4C1141F480113D
:104F500043F48013AE44A1FB024CA0FB0365AEF109
:104F60007F7E361955EB0C05A1FB034C4CF1000379
:104F7000A0FB021C16EB0C06654153F1000309422D
:104F800018BF46F0010613F4007F0BD14FEA03313E
:104F90004FEA0530340341EA155140EA16506FF0EC
:104FA00003020AE04FEAC3214FEAC520F40241EAB6
:104FB000555140EA56506FF0020202EB2E4201EBCF
:104FC000025585EACE710AD05FEA440C18BF24F07E
:104FD000004450F1000041F1000120EAD47040F299
:104FE000FE7C624500D270BDA84214BF4FF08044E1
:104FF0004FF04044002E08BF0024BEF1806FA8BFD0
:10500000A1F1C041BDE8704080F282804FF0000005
:1050100001F1C04101F0004170479EEA0C0F0CEA1B
:10502000131518BF95EA0C0F06D04FF0000081EA67
:10503000030E0EF0004170BD00F01CF88900013E27
:1050400000F007B800F009B84FEA430C5FEA5C5C77
:1050500008D081EA030100F05BB84FEA410C5FEA37
:105060005C5CF6D14FF00000014970470000FF077B
:105070000000F87F0EF1020E2EF0030E5EF8046BB6
:10508000364205D4012A43EB030515F5001F12D85B
:10509000012841EB010C1CF5001F0CD80ED14FEA82
:1050A000D17C15F5001F0CEB4C0C0CF1020C08BF69
:1050B0004CEBD37C04E04FF0080C01E04FEAD37CCA
:1050C0000CEB4C0526FA05F606F00706B6F1040CC3
:1050D00006D20EEB860CBDE870404CF0010C604728
:1050E000DFE80CF0090B02024FF000414FF0000026
:1050F000A1F5002170BD19461046012851EB0104AD
:1051000018BFD4F5001484BF002001F0004170BD29
:105110000808A0F500114FEA3101704791EA030F2A
:1051200010B581F000413FF559AC83F0004300F029
:1051300009B8000010B591EA030F48BF83F000439F
:105140003FF54CAC841A71EB030C07D212198CF0AA
:10515000004C43EB0C03001B61EB0C01DFF8A4E1F6
:105160004FEA1154A4EB135C1EEA430F18BF9EEAEA
:10517000445F00F0B08023EA6E03524221EA0451FA
:10518000C3EB6E0338BF5B1EDCF1200E25D322FA81
:105190000CFE10EB0E0043FA0CFE41EB0E01CCF1BD
:1051A000200E03FA0EFE10EB0E0051F10001CCF1BF
:1051B000200E29D412FA0EF201EB0451BDE8104082
:1051C00058BF7047401C1CBFB2F1004F7047002809
:1051D0000CBF491C20F00100704712EB020E43EB9C
:1051E000030218BF4FF0010E4EEA4202ACF1200C50
:1051F000DCF11E0E54D943FA0CFE10EB0E0051F1F7
:10520000FF31CCF11E0ED5D50EF1010E12FA0EFEB5
:10521000404141EB010101EB445C5FEA5C5C10D969
:1052200010EBDE7001EB045138BFBEF1004FBDE85A
:10523000104018BF704700280CBF491C20F0010027
:10524000704730D24FEAD42C11F5001124F40064D9
:105250001BD0B1FA81F20B3AA41AA41ED2F120039A
:10526000914030FA03F31943904001EBCC71002CCC
:1052700001EB0451BDE81040A8BF704701F1C041E7
:105280004FF0000001F000417047B0FA80F310FACF
:1052900003F100D110BDE41A173C4805C90AE4E740
:1052A00001EB045110BD491001EB0451BDE8104061
:1052B0004FEA300002E04FF0000170474A0008BF9B
:1052C0000042F8D0B2F5001F28BF704701F000413E
:1052D0004FF0000070479EEA445F07D011EA5E0F6E
:1052E000BDE8104004BF002100207047BDE8104019
:1052F00070B5FFF7BFFE00BF40DFF63E83F0004110
:10530000104670470000E0FF43004FEAD30C4FEA1D
:105310003C0C43401FBF40070CF1605113F0FE4F9F
:1053200070471CF0006F03D100200CF00041704763
:105330000CF0004343EA507010B540EACC0000F096
:10534000A0F900BF000000924FEA0001FFF7E0BEA5
:105350004FF000414FF00000A1F500217047000020
:10536000014800F0DDB900BF0000C07F4FF47F0CA2
:105370001CEAD0121EBF1CEAD11392EA0C0F93EA6A
:105380000C0F00F0858090EA010F48BF42F4807254
:1053900040F4000C41F400002CF07F4120F07F40ED
:1053A00000B58142A2EB03020FF2081CACEB504E99
:1053B000C0F100009EF800E04FEA4E0E00FB0EFC2C
:1053C00038BF49004FEA2C1C02F5FA020CFB0EF321
:1053D0004FEACE1E4FEA112C4FEAC1210EEB635E5D
:1053E00042EB22420EFB0CFC4FEA1C5300FB031164
:1053F0004FEA112C4FEA01310EFB0CFC4FEADC4C5A
:1054000000FB0C11C14228BF09184CEB03335DF8B7
:1054100004EB10EB410143EBC250B2F57C0F38BFF7
:10542000704729D512F0F00F1CBF00F1C04000F00A
:1054300000407047008182838485868788898B8CB1
:105440008D8E8F919293959697999A9C9D9FA0A2ED
:10545000A3A5A7A8AAACAEB0B2B3B5B7B9BCBEC03D
:10546000C2C5C7C9CCCED1D4D7D9DCDFE2E6E9ECDE
:10547000F0F3F7FAFE0000004FEA400C0CF1807CDC
:10548000BCF17E4F28BF7047B0F1C04000F03FB97B
:1054900090EA010F0CEAD11348BF42F480726245D2
:1054A00038BF634507D213F47F0F16D080EA01009E
:1054B00000F00040704710B500F0E3F8097EFC3EB4
:1054C00000F005B880EA010000F00040704780EA73
:1054D000010000F0004000F01AB912F47F0F04BF81
:1054E0000248704780EA010000F011B90000C07F57
:1054F00041000B0ED3F19E0208D950F400034FEA8D
:10550000032323FA02F048BF4042704710B500F071
:10551000B8F800BF49922480002070476FF0004225
:1055200082EA20007047000010F0004148BF40426E
:10553000B0FA80F310FA03F2C3F19D030BD051EAE5
:10554000C35101EB1220530638BF704700F1010030
:1055500008BF20F001007047B0FA80F310FA03F2A0
:10556000C3F19D030AD0D90501EB1220530638BFC1
:10557000704700F1010008BF20F0010070470000F3
:105580004FF47F0C1CEAD0121EBF1CEAD11392EA22
:105590000C0F93EA0C0F00F0478090EA010F48BF10
:1055A00042F480724FF0004C4CEA00204CEA01219A
:1055B00002EB0302A0FB0113A2F50002002918BFB1
:1055C00043F001035B0028BF4FEA330342EB224262
:1055D0005FEA132C4CEBC2502EBFBCEB436FB2F50D
:1055E0007C0F70474FEA036CBCF1004F08BF20F0FE
:1055F0000100B2F57C0F38BF70470BD582F0FF0277
:1056000012F5803FC8BF704700F1C040D8BF00F01E
:105610000040704700F5000C5FEA4C0C48BF704733
:10562000B0F1C04000F073B890EA010F0CEAD1135A
:1056300048BF42F48072624538BF634504D280EAB5
:10564000010000F00040704710B500F01AF800BFEC
:105650008900013E00F007B800F009B85FEA410C8C
:105660005FEA1C6C08D080EA010000F050B85FEAE5
:10567000400C5FEA1C6CF6D14FF00040A0F58000B2
:1056800070470EF1020E2EF0030E5EF8044B24421A
:1056900004D44FEA4102B2F17F4F11D84FEA4003E0
:1056A000B3F17F4F0CD80ED14FEAD07CB2F17F4FCF
:1056B0000CEB4C0C0CF1020C08BF4CEBD17C04E061
:1056C0004FF0080C01E04FEAD17C0CEB4C0324FABC
:1056D00003F404F00704B4F1040C06D20EEB840CBE
:1056E000BDE810404CF0010C6047DFE80CF0070803
:1056F00002024FF00040A0F5800010BD08464200B5
:1057000018BFD2F1807288BF00F0004010BDFF21A9
:1057100041EAD050C0057047FBF753BAFBF788BB8E
:105720000CF00F03092B08BF082000F07F800A2B24
:105730000BD0082B18BF704708BF1CF0400F0AD0D1
:105740004FF000004FF0000170471CF0400F18BFF1
:105750004FF0004070471CF0100F08D020F070434D
:1057600000F07F4242EAD3014FEA4370704700F0F5
:10577000604021F07F4242EA000201F07F4040EAAF
:10578000727070474FF0FF0C4CF4E06C1CEA115340
:105790001CBF9CEA030C9445C2BFDA4201EB0251E4
:1057A0007047002B0DD0BCF1000F0FD0002A01F084
:1057B0000041A4BF41F0E04141F07F614FF00000A3
:1057C000704701F000414FF00000704750EA01338C
:1057D0004FF09B0C18BF4CF0806C7FF49FA9704772
:1057E0004FF0FF0212EAD0521CBF92F0FF038B422F
:1057F000C2BFD14200EBC1507047002A0AD0002B33
:105800000BD0002900F00040A4BF40F0FE4040F45F
:105810000000704700F00040704743024FF00B0C4F
:1058200018BF4CF0806C7FF49BAD70471CF4801F58
:1058300011D01CF4E02F03D06FEACC31490070473F
:105840004FF04050EFF3008222F0704242EA000233
:1058500082F3008870474FF0000070470102020396
:105860000405060708090A0B0C0D0E0F10100102A3
:1058700002030405060708090A0B0C0D0E0F101091
:1058800000000000000000000102030406070809F0
:1058900000000000010203040000000000000000FE
:1058A0000000000000000000000000F80000000000
:1058B000000000333000000000160E00160E00003D
:1058C000000000000000000040C07840C0784000A8
:1058D000043F04043F040400007088FC083000000A
:1058E000001820FF211E0000F008F000E018000062
:1058F00000211C031E211E0000F00888700000001B
:105900001E21232419272110000000160E0000007C
:105910000000000000000000000000E01804020089
:10592000000000071820400000020418E0000000FA
:105930000040201807000000404080F080404000F8
:105940000202010F01020200000000F0000000004E
:105950000101011F01010100000000000000000022
:1059600000B0700000000000000000000000000017
:105970000001010101010101000000000000000020
:1059800000303000000000000000000080601804BB
:10599000006018060100000000E010080810E00098
:1059A000000F102020100F00001010F80000000061
:1059B0000020203F202000000070080808887000A8
:1059C0000030282422213000003008888848300028
:1059D0000018202020110E000000C02010F8000048
:1059E00000070424243F240000F8088888080800E1
:1059F0000019212020110E0000E0108888180000F6
:105A0000000F112020110E0000380808C8380800C7
:105A10000000003F00000000007088080888700047
:105A2000001C222121221C0000E010080810E000C8
:105A30000000312222110F00000000C0C000000051
:105A40000000003030000000000000C0C000000076
:105A5000000080B0700000000000804020100800AE
:105A60000001020408102000404040404040400037
:105A70000404040404040400000810204080000012
:105A80000020100804020100007048080808F00017
:105A90000000003036010000C030C828E810E000E7
:105AA0000718272423140B000000C038E000000072
:105AB000203C23020227382008F8888888700000DC
:105AC000203F202020110E00C030080808083800B0
:105AD000071820202010080008F808080810E00027
